:1000000037C067C066C053C964C063C062C051C80E
:1000100060C05FC05EC05DC05CC05BC0C6C759C089
:1000200058C0F2C7F1C755C054C053C052C051C0E8
:1000300050C04FC00708000102030405060A091159
:10004000100F0E0D0C0B0A0911100F0E0D0C0B07E3
:10005000080001020304050602FF0103000408056D
:100060000607070A0B090C110D100E0F0FFF6B0F7F
:1000700011241FBECFEFCDBFDFE3DEBF8091400074
:1000800080934000811105C098ED21E094BF20933A
:1000900041008CBB1EE3A0E0BEE3E4EFFFE102C041
:1000A00005900D92A630B107D9F72EE3A6E0BEE386
:1000B00001C01D92A63FB207E1F710E0C8E3D0E00F
:1000C00003C02197FE015EDFC733D107D1F70AD9FC
:1000D0006BCF96CFE091E13EF091E23E8E179F0705
:1000E00098F53091E83E332361F0639FB00111240D
:1000F000672F349FA0011124452F329F90011124B6
:10010000232F3091EE3EE091E93EF091EA3E50918E
:10011000EB3E35131AC0DC01AA0FBB1F8A0F9B1FD1
:100120008E0F9F1FE091EB3EE80FF92FF11D6083CA
:10013000E091EC3EE80FF92FF11D40833091ED3E48
:10014000830F911DFC0120830895880F991F880F4C
:10015000991F8E0F9F1FFC01E30FF11D1082E2CF4C
:100160000F931F93AB01BC018FB7F8940091DB3E56
:100170001091DC3E2091DD3E3091DE3E8FBFEFB727
:10018000F8948091DB3E9091DC3EA091DD3EB091F1
:10019000DE3EEFBF801B910BA20BB30B84179507BC
:1001A000A607B70760F31F910F910895CF92DF92D2
:1001B000EF92FF929FB7F89488E08093840A809131
:1001C0008E0A81FFFCCF80918D0AE091A20AF09106
:1001D000A30AC090D73ED090D83EE090D93EF09090
:1001E000DA3E9FBF80FF08C0E730F10528F48FEFAB
:1001F000C81AD80AE80AF80A9F0136952795CF0150
:10020000820F911DE22FE695E695322F32953F70D1
:10021000E31BFF0B27FD3196E80FF91FA0E3B3E0C6
:10022000A7019601A5DEF694E794D794C794C60E6D
:10023000D71EE81EF91EC701B6016E0F7F1F811D74
:10024000911DFF90EF90DF90CF9008950F931F9333
:10025000CF93DF93CDB7DEB72797CDBFDEBF8091B9
:10026000E33E9091E43E89839A838091E93E9091A8
:10027000EA3E892B09F469C08091E73E8C300CF08E
:1002800064C094DF0091EF3E1091F03E2091F13E6A
:100290003091F23EAB01BC01401B510B620B730B62
:1002A0008091E53E9091E63EB0E0A0E04817590706
:1002B0006A077B0730F3F894A091E93EB091EA3EDB
:1002C000FD0131968C918F83A091F33EB091F43E65
:1002D0009C918091F53E982B9E839C9180958923DB
:1002E0008D838D818C8388E08B835E816D814F81CE
:1002F0003B812C8189819A815C9347FD252F3A951A
:10030000000000C02C93262F41F0441F00C00000C5
:100310006C9301D0F1CF00C0089538E04191000006
:100320006C93000000C000C0019731F74F833B83FE
:100330002C8389839A83789439DF6093EF3E70939E
:10034000F03E8093F13E9093F23E2796CDBFDEBF04
:10035000DF91CF911F910F910895CF93DF93FC010F
:100360008091413E9091423E309759F410920A0696
:1003700082E090E08093433E9093443EDF91CF91A2
:100380000895248524FD05C022813381281739076B
:1003900021F00190F081E02DE7CFE093453EF0930E
:1003A000463EC0E0D6E085899FE3882319F0928518
:1003B00092959F708385258130E02EA33FA32681EF
:1003C00030E02AA73BA78B31E8F48C5F8D838185D1
:1003D000282F2F7020612A83288D2360288F278162
:1003E00030852A8F3B8F9C8F92859F709983829551
:1003F0008F70898F81E88883848582FD05C081E0C4
:100400008887BCCF8FE1E2CF81E08987B7CF1F9388
:10041000CF93DF93FC01848580FD9EC083FF9CC049
:10042000877F8487C585D68595897689911198C0FF
:1004300017813085632F607CC11522E0D20718F147
:10044000CE018F5F91408430910508F479C02281FC
:1004500020FF05C0969587955FEFBAEF0AC08130FF
:1004600021E0920720F0605CCE018F5E924051E067
:10047000B6E0A12FA295AF70432F4F7032953F7019
:10048000232F23703AC08FEF91E08C1B9D0B84309B
:10049000910508F455C0228120FF03C096958795E9
:1004A000E6CF813021E09207B8F26034A8F26054C0
:1004B0008FE091E08C1B9D0BCFCF352F320F343066
:1004C00030F48F5C9109232F803D9105B0F7863180
:1004D000910538F5403128F0322F350F343030F1A6
:1004E000451B8230910528F5A03138F0450F403189
:1004F00028F1250F243068F54B1B8230910520F739
:10050000A295A07F2295207F462B242B1F70A12B24
:10051000322F2A2F278330877B30D8F47F5F768B6A
:100520001BC0450F4031C0F64597D1CF4B1B232F41
:10053000D8CFA50FA031D0F60297D3CFAB1BDDCF1C
:10054000C787D08B848582FFB3C080E8168A858BED
:1005500003C0848581608487DF91CF911F910895C6
:1005600047855089C41BD50B90FF07C0CB36DF4FA2
:100570009CF4743098F280E0E9CF91FF0FC01C1614
:100580001D0654F0CA36DF4F0CF48CC0415051099F
:10059000703120F24787508B84E01BC092FF1CC053
:1005A000CA368FEFD8070CF47DC0A189B289CA176B
:1005B000DB070CF07BC04B5651404B325140D8F614
:1005C000CF3F8FEFD8070CF46FC088E022970CF470
:1005D000A5CF9813BBCFA2CF93FF0EC0D7FDDCCF22
:1005E000A189B289CA17DB070CF060C0703108F42A
:1005F00095CF4F5F5F4FCECF94FF08C0733080F42C
:1006000041895289C417D5073CF288CF95FF0AC0AB
:10061000733010F6418952894C175D070CF07ECF7C
:1006200080E4D7CF96FF0BC0793C08F0A4CF438974
:100630005489C417D5070CF071CF80E2CACF97FF59
:100640006DCF848582FD1EC0A189B28980E4AC177C
:10065000BD070CF084E010923F3E1092403ECF3F29
:100660002FEFD2078CF4415051094787508B2091CE
:100670001406309115062150310920931406309349
:100680001506A7CF892FEBCF22970CF4A2CF4F5F8F
:100690005F4F4787508B20911406309115062F5FCE
:1006A0003F4FEBCF81E095CF82E093CF80E191CFB8
:1006B00084E04CCF813041F020F0823049F060E09E
:1006C00001C06EE170E002C060E07EE180E008956C
:1006D00060E070E08EE10895CF93C82F862FEADFA7
:1006E000472F282F8C2F90E0CF91F4CC882319F03E
:1006F00090E00896EFCC81E190E0FCCFEF92FF9282
:100700000F931F93CF93DF93D82FF62EE42EC22F93
:10071000022F10E0085F1F4F8C2F90E00817190779
:1007200034F02E2D4F2D6D2FD5DCCF5FF5CFDF911F
:10073000CF911F910F91FF90EF900895942F462F26
:1007400020E0811129E0652F892FD8CFDF92EF9229
:10075000FF920F931F93CF93DF93D82ED62FC72FDF
:10076000E42E4091CD9F5091CE9F6091CF9FE6DFC8
:100770000D2F1C2FF12CD0E0C0E0CE15DF0579F055
:10078000F80181918F0196DF472F282FD11004C0E7
:10079000CE01A0DC2196F1CF8C2FA8DFFBCFDF911B
:1007A000CF911F910F91FF90EF90DF904FCD88E098
:1007B000809313041092063E08958DE080931304F5
:1007C00081E08093063E0895EF92FF920F931F936E
:1007D000CF93DF93082FF62EE42E122FD0E0C0E047
:1007E0002E2D4F2D602FCE0175DC2196C231D10503
:1007F000B9F7112339F0DF91CF911F910F91FF903D
:10080000EF9024CDDF91CF911F910F91FF90EF904A
:100810000895962F672F242F482F892FD5CF0F9318
:100820001F93CF93DF93EC01162F042F6091CD9F80
:100830007091CE9F8091CF9F40E0EBDFCE0169E0C9
:1008400070E06FDBEC01202F40E0612F43DC202FB4
:1008500040E0612F81E190E08C1B9D0B3BDCF6DCDE
:1008600084E6DF91CF911F910F9108950F931F930D
:10087000CF93DF93162F042F64E170E052DB282F13
:100880008B3010F024E1281B220F30E0F901E85AE8
:10089000FF4FD491F901E75AFF4FC4916091CD9F6A
:1008A0007091CE9F8091CF9F40E0B3DF20E0402F3A
:1008B000612F8D2F90E00EDCCF3F31F020E0402FF4
:1008C000612F8C2F90E006DCC1DC84E6DF91CF91B4
:1008D0001F910F910895FF920F931F93CF93DF9372
:1008E000F82EC92FD62F6091CD9F7091CE9F809109
:1008F000CF9F40E08EDF0F2D1C2FC0E0CD1739F0C9
:10090000F80161918F018C2FE7DECF5FF7CFDF9188
:10091000CF911F910F91FF9099CCE9E4FEE330E075
:1009200020E080E041E050E09589907639F0BA010E
:10093000022E01C0660F0A94EAF7862B2F5F3F4F05
:1009400077962630310581F70895CF93E6DFC82FDB
:10095000877059F040E0C0FD44E160E0C2FD64E111
:1009600080E0C1FD84E120E0C9DE8C2F887359F05E
:1009700040E0C5FD44E164E1C3FF60E080E0C4FD08
:1009800084E129E0BBDECF9161CC2091033E309120
:10099000043EC9019695879520FD07C08093033ECC
:1009A0009093043E8091033E089524EB9227F6CF66
:1009B0000F931F93CF93DF93162F082FEC01E5DFE2
:1009C00083708330E1F389938C2F801B8117B8F3F8
:1009D000DF91CF911F910F910895FF920F931F9375
:1009E000CF93DF93082FF92EEB01142F642FCE0144
:1009F000DFDF902FDE01E02FFF2D21918D91281355
:100A00000BC08E2F891B8117C0F3888190E001965F
:100A100063E070E09ADA8883DF91CF911F910F91A4
:100A2000FF9008958091080483FB882780F908953A
:100A300094E0811116C0909326049091200492FDB9
:100A40000AC09FB7F89481110FC080913204877F4C
:100A5000809332049FBF8091010A8B7F8093010AAB
:100A6000089590932504E9CF809132048860F0CFF7
:100A70008C30F0F490E0FC01E851F04620812F3FEB
:100A8000B9F0FC01E452F046E08130E2E39FF0016E
:100A90001124FC5F613069F4218380539046DC01AE
:100AA0008C91E80FF11D8089613029F08860808B7E
:100AB00008952283F2CF877FFACF8EEF8093520181
:100AC0001092D33E80915000897F846080935000C3
:100AD0008DE08093130480E0ABDF809100068E7F71
:100AE00080930006CEEBDFE961E08991C1DF8FE9F9
:100AF000C43CD807C9F780915000816080935000B2
:100B0000889588ED91E084BF90930001FFCFBF925C
:100B1000CF92DF92EF92FF920F931F93CF93DF93C9
:100B2000B62ED72FC1E0C8278C2F8170F82EC09029
:100B3000CD9FD090CE9FE090CF9F40E08E2DB6010C
:100B400068DE4091CA9F5091CB9F6091CC9F8C2FC3
:100B5000F5DD0B2D1D2FD0E0C0E0F80181918F0154
:100B6000A9DD472F282FFF20C9F0CE01B3DA219647
:100B7000C730D10591F76ADB68EB7BE080E090E05D
:100B8000EFDA41E08E2DB601DF91CF911F910F91E9
:100B9000FF90EF90DF90CF90BF903BCE8C2FA6DDE3
:100BA000E6CFCF92DF92EF92CF93DF93D82FC62F6D
:100BB000C090CD9FD090CE9FE090CF9F40E08E2DF3
:100BC000B60127DECD17E0F44091C49F5091C59F38
:100BD0006091C69F80E0B2DD29E040E060E08EE1F8
:100BE0008DDD34DB60ED77E080E090E0B9DA41E064
:100BF0008E2DB601DF91CF91EF90DF90CF9009CE8F
:100C00004091C79F5091C89F6091C99FDC1730F0F9
:100C10004091C49F5091C59F6091C69F80E08EDD3A
:100C200029E040E06EE180E0DBCF6F927F928F920F
:100C3000CF92DF92EF921F93CF93DF93D82F3A0199
:100C4000862E122FC0E0C090CD9FD090CE9FE09016
:100C5000CF9F682DA3018D2F71DDF8DA62E370E07C
:100C600080E090E07DDA6E2DA6018D2F67DDEEDA53
:100C700062E370E080E090E073DACF5F1C13E9CFAD
:100C8000DF91CF911F91EF90DF90CF908F907F9069
:100C90006F9008956F927F928F92CF92DF92EF9232
:100CA0003B01882E41E0B5DD62E370E080E090E03A
:100CB00057DAC090CD9FD090CE9FE090CF9F41E07B
:100CC0008E2DB601A6DD62E370E080E090E048DAA8
:100CD00041E0882DB3019DDD62E370E080E090E0AB
:100CE0003FDA41E08E2DB60194DD62E370E080E0F2
:100CF00090E0EF90DF90CF908F907F906F9030CA10
:100D0000CF92DF92EF92CF938091D63E90910014D4
:100D1000891779F0A0E0B4E1E0E0F0E10FB62281BC
:100D20002370E9F7F8948C938DE984BF83E0808386
:100D30000FBEC6E0C090C49FD090C59FE090C69FF4
:100D40008E2DB601A7DFC150D9F7CF91EF90DF907C
:100D5000CF9008950F931F93CF93DF93D82F8B01DC
:100D6000C7E081E0DD2311F0C8E380E04091CA9F35
:100D70005091CB9F6091CC9FE1DC68DACEDD982F5B
:100D80009C2339F08FE493EC0197F1F700C0000049
:100D9000F5CF8C2341F4EFE4F3EC3197F1F700C089
:100DA0000000BBDDF6CFD1111DC0823031F08430A0
:100DB000F9F0813009F582E01CC0F8011082F801D9
:100DC000808178DCAB0111E0682F8D2FB7DC3EDA33
:100DD000A4DD8C23B1F08FE493EC0197F1F700C010
:100DE0000000F6CF803149F3803229F3883021F4B6
:100DF00081E0F8018083E3CF40E050E080E010E044
:100E0000E3CF812FDF91CF911F910F910895BF9272
:100E1000CF92DF92EF92FF920F931F93CF93DF93C6
:100E20001F92CDB7DEB7182F7B01B42E87E0841751
:100E300010F487E0B82E40E0B701812F87DC67010E
:100E400000E01982BE016F5F7F4F812F83DF811128
:100E500019C040E0B701812F79DC4091C79F5091C4
:100E6000C89F6091C99F22E0812FDFDE802F0F9005
:100E7000DF91CF911F910F91FF90EF90DF90CF9076
:100E8000BF900895F60191916F0189819813E1CF88
:100E90000F5F402FB701812F59DC6CE271E080E0D9
:100EA00090E05ED90B1568F24091C49F5091C59FA8
:100EB0006091C69FD8CF6F927F928F929F92AF9290
:100EC000BF92CF92DF92EF92FF920F931F93CF9337
:100ED000DF931F92CDB7DEB7D82EC62EB42E062FC5
:100EE000172FE62EF72E6090CD9F7090CE9F8090AA
:100EF000CF9FA62EF70191907F0140E0882DB3018E
:100F000088DC892DD7DBAB01682F8D2D17DC9ED9AE
:100F100060E971E080E090E023D9682DA3018D2D78
:100F20000DDC94D968EC70E080E090E019D98E2D4A
:100F30008C198B15F8F21982BE016F5F7F4F8D2DD2
:100F400009DF882331F0F80191918F018981981789
:100F500089F080E00F90DF91CF911F910F91FF906A
:100F6000EF90DF90CF90BF90AF909F908F907F9049
:100F70006F900895682DA3018D2DE0DB67D96AEF8E
:100F800070E080E090E0ECD8802F8A198B1598F201
:100F900081E0E0CFC2DC882339F08FE493EC019745
:100FA000F1F700C00000F6CF08958F9381E08093A1
:100FB0008D0A8FB78F93EF93FF93E7EDFEE39F9337
:100FC00068948FEF0DC0E89484819581805D9C4F7B
:100FD00084839583885E934080F0848395838FEF2C
:100FE0009081981B919390819F4F919390819F4FF7
:100FF000919390819F4F919336F39F91FF91EF9141
:101000008F918FBF8F9118951F920F920FB60F92ED
:1010100011242F933F934F935F936F937F938F93FD
:101020009F93AF93BF93CF93DF93EF93FF93C0E072
:10103000D6E0E091453EF091463E3097F1F01882BF
:101040003B858889998922852F7002C0969587955E
:101050002A95E2F7858796878485886084878485CA
:1010600082FF23C0848531FF1BC08260848780E1BA
:1010700090E08093433E9093443EFF91EF91DF9147
:10108000CF91BF91AF919F918F917F916F915F9120
:101090004F913F912F910F900FBE0F901F90189579
:1010A0008D7F848788E090E0E4CF8081918155D95D
:1010B000E4CF1F920F920FB60F921124CF92DF92BE
:1010C000EF92FF922F933F934F935F936F937F9392
:1010D0008F939F93AF93BF93CF93DF93EF93FF9340
:1010E00081E0809353018091D33E882309F492C01C
:1010F0008FB7F894C090DB3ED090DC3EE090DD3EB0
:10110000F090DE3E8FBF8091433E9091443E8871C7
:101110009927892B09F49FC080913F3E9091403ED2
:101120000097A1F02091433E3091443E70D98091C8
:101130003F3E9091403E892B09F083C01092413E82
:101140001092423E1092433E1092443E8091073EE0
:101150009091083EC81AD90A24E1C216D10408F4B5
:1011600059C044968093073E9093083E8091433E39
:101170009091443E892B09F04DC0E0E0F6E080916B
:10118000433E9091443E89799927892B09F042C0CA
:101190008091473E9091483EDC0112962D913C9102
:1011A000108E40EE20FD76C023FF71C048E2408FD4
:1011B00046E8468F1082138243E04387332720930B
:1011C000413E3093423EA0913F3EB091403E109749
:1011D00009F463C082E0828784831F968D919C917D
:1011E000509751962D913C915297820F931F1A96CA
:1011F0002C911A972F7002C0880F991F2A95E2F739
:10120000848B958B84E090E08093433E9093443EA2
:10121000CD01A3D8FF91EF91DF91CF91BF91AF9115
:101220009F918F917F916F915F914F913F912F91FE
:10123000FF90EF90DF90CF900F900FBE0F901F9018
:10124000189582E080930A0684E090E08093433E04
:101250009093443E7BCF8091433E9091443E0297D1
:1012600009F074CF1092433E1092443EC091473E25
:10127000D091483E209729F41092413E1092423E70
:1012800065CFCE01C4D80990D881C02DF3CF22FFFD
:10129000C1CF48E2408F168E8DCF21E02287148285
:1012A00021E030E02093433E3093443EB2CF1F9282
:1012B0000F920FB60F9211248F939F9388E0809323
:1012C00009048091063E882331F088ED91E084BFC7
:1012D00090930001FFCF9F918F910F900FBE0F90C1
:1012E0001F901895CF93DF93CDB7DEB7AF97CDBFE3
:1012F000DEBF88ED90E084BF90936100E0E0F6E00F
:1013000083E582838DE0858380E2838381E080832F
:10131000109202028093030A9EEF9093260A909304
:10132000270A9BE09093000AE0E8FAE02DEF31E015
:1013300026A737A7118290E89283848781E1808372
:10134000789461E088E094DB61E089E091DB61E022
:1013500085E08EDB61E084E08BDB61E084E088DBAC
:1013600062E08AE085DB81E063DB809141018111ED
:10137000FCCF81E0809347018091473E9091483EA9
:101380002EEB3FE9E9E4FEE314EC612E1FE9712E38
:1013900004E010E044E0842E54E1E52EF12C6AE0F4
:1013A00070E0A7E6CA2EA5E0DA2EB3E05B2E44EF8C
:1013B000342E50E5A52EB12CD9014D919D01912CD3
:1013C0004C3028F4A42FB0E0AE54B0469C90FE33CD
:1013D00009F07FC0DC01009709F072C01482CF01D0
:1013E0001582968202831383992009F472C0828643
:1013F000E18AF28A638B748BC782D08651864091D2
:101400002206509123064929409322065093230631
:101410004CEA5FE9B6E04B2E90FE06C0DA012C9054
:10142000A22DB0E0BC5F8C9296944A944F5F5F4FC0
:101430004110F2CF3286A18AB28A638B748B779681
:101440006216730609F0B8CF8093473E9093483EEA
:10145000809100148093D63E81E08093520199E1FF
:10146000909350018093D33E412C512C3201A5E042
:101470002A2EF12CE12C3090C79FB091C89FB88FD5
:10148000E091C99FE98F3FA2B8A7E9A73AA6BBA7F9
:10149000ECA73DA6BEA7EFA7EFEFE20DEB3010F5EE
:1014A000F0E0EC5AF54F099428C040C044C04AC04F
:1014B0004CC09EC0B8C0D0C0E7C019C175C1DA0128
:1014C0004D915C91119741155105C9F7EA17FB073A
:1014D00009F4FFCFED93FC93119714964C914F5F55
:1014E00044837ECF4AE060E0C701C0D9082F10E0F6
:1014F000212C0115110569F12FC02CE330E0C70143
:10150000B9010FD58C018F31910520F0A901481B3D
:10151000590B8A0121E040E060E0802F55D9012B72
:1015200019F408EC10E018C00EE1FCCF4AE060E0CE
:10153000C70175D904C040E06AE0C70197D9082FF8
:1015400010E0D7CF40E06AE0F3CF8091D63E8770BD
:1015500011F1239410E000E0EFEFEE1AFE0AC8014B
:10156000012E000CAA0BBB0B480E591E6A1E7B1ED7
:101570008091C49F9091C59FA091C69F89A39AA373
:10158000ABA38091C79F9091C89FA091C99F8CA346
:101590009DA3AEA367C1C7016AE570E0C2D420E095
:1015A00040E03EE182319105A8F08432910578F067
:1015B00020E048E034E18633910560F02EE140E020
:1015C00036E08834910530F0422D2EE102C020E053
:1015D00048E030E062E170E0A4D48C5C9F4FFC01F5
:1015E0008491632F90E076D531D602E310E0B4CF3A
:1015F0008091D63E81FDADCFC70163E070E091D40C
:10160000182F20E040E060E080E0DED820E044E1F8
:101610006AE0812F90E05ED51D5F1231B8F316D6D7
:1016200006E910E099CF8091D63E82FD92CF20E06E
:101630004FEF64E18CE0C8D801E010E020E042E028
:1016400060E0C80147D50D5F1F4F03311105B1F7A9
:10165000FDD50AEF10E080CF8091D63E80FD79CF96
:101660001E2D117020E040E060E08AE0ADD82FEF41
:1016700040E060E0812F90E02DD51E5F1231B8F37D
:10168000E5D504E610E068CFC70169E070E049D411
:101690006C0120E040E060E080E096D8912CF9E019
:1016A000AF2EB12C892C880C890CC601B50139D418
:1016B0008C01FC01E15BFF4F8491282D40E0692DF6
:1016C00090E008D5F801EA5BFF4FE491282D40E057
:1016D00060E08E2F90E0FED49394FFEFCF1ADF0AE4
:1016E00027E09212DFCFB2D50BE410E035CF15D949
:1016F000882339F0E092D43EF092D53E8EE180937B
:10170000023E8091023E2091D43E3091D53EA70109
:10171000421B530B4739510528F0873018F0815090
:101720008093023E0091023E8091003E9091013EE6
:1017300010E0E816F906D8F06091CD9F7091CE9F29
:101740008091CF9F41E065D820D99701201B310BB4
:101750002A5C3F4F877054E0859FC0011124280FF9
:10176000391F2093003E3093013E08E7DBCE2E2D3B
:101770002F73E5FE03C08FE3821B282F065011094B
:10178000209FC001219F900D112475E096958795AB
:101790007A95E1F78A5F682F70E07595679521E08B
:1017A00040E012D80CE3BECE1E2D1F73103218F08D
:1017B0008FE3811B182F0FE1011B000F110F20E099
:1017C000402F60E0812F9AD729E0402F612F80E0E1
:1017D00095D73CD508E010E0BFCEF9ECEF16F10448
:1017E000E8F121EBE21624E0F20608F062C095D899
:1017F000F82ED0DBFF2009F4B3C08FB7F8944091E6
:10180000DB3E5091DC3E6091DD3E7091DE3E8FBF4D
:101810008091033E9091043E9C012427352720931C
:10182000033E3093043E8417950731F481EE9CEA21
:101830008093033E9093043E94E0F91609F478C136
:101840009F1508F461C0A1E0FA1609F48BC0B2E05C
:10185000FB1609F4ECC0412C512C3201F12CE12C87
:101860000A501109101611060CF020C36ED88FE42F
:1018700093EC0197F1F700C00000D4D8813081F3D8
:1018800062E370E080E090E06BD462E3E62EF12C3E
:10189000C9D88111A2CFA7EAB1E61197F1F700C02C
:1018A0000000B5E0EB0EF11CE5EDEE16E7E0FE06FC
:1018B00079F76091C79F7091C89F8091C99F41E05F
:1018C000A8D7B0D8811107C087EA91E60197F1F750
:1018D00000C00000F6CF93E041E039E12EEF4093E5
:1018E00052013093500180915000897F8460809331
:1018F0005000809150008160809350008895209323
:101900005201915061F7D9D8E0E1FE1609F462C2A4
:10191000F0E2FF1609F481C128E0F2129CCF4DD706
:101920006AE0CE010B9644D84AE0BE016F5F7F4F5C
:10193000CE010B9652D8B12CC12CEE24E394DD24B9
:10194000D39483E0F82E6090C49F7090C59F8090E0
:10195000C69FD11070C2E1107FC26B2D8C2D30C29A
:10196000239479CF2AD758ECD52E4090CD9F509014
:10197000CE9F6090CF9F09D88770B82E47E0C42EC5
:10198000882E912CF12CE12C7E2C40E0862DB2018A
:1019900040D720E04EE160E0C4019CD320E04EE15E
:1019A00060E08B2DA3D620E040E06EE1C70192D32A
:1019B00020E040E06EE18E2D99D648D4A12C45E080
:1019C000A40EABD7882351F0B714D9F06091C79F0C
:1019D0007091C89F8091C99F5DD9A8C087EA91E6A0
:1019E0000197F1F700C00000AD1448F39FEFE91A2A
:1019F000F90AA9E0EA16F10439F6CA94C110C2CF77
:101A0000E5CF8BD7882339F0E7EAF1E63197F1F794
:101A100000C00000F6CFFCEEDF0E28E2D212ABCF02
:101A20008091D63E8E7F8093D63E6AD97FC0C5D640
:101A300067E0CE010196BCD76091CD9F7091CE9F9B
:101A40008091CF9F40E0E5D6AE014F5F5F4F7A01B6
:101A5000D12CD7016D917D018D2D3ED6D394B7E069
:101A6000DB12F7CFF3D368EB7BE080E090E078D334
:101A700060E0CE0101962FD73AE0C32EF12C4DD76E
:101A8000E82EE11009C049D7E82EEFE4F3EC3197D6
:101A9000F1F700C00000F5CF58D7F4E0EF1681F160
:101AA000FE1528F121E0E21681F142E0E41681F111
:101AB000E12CD12C6FDADD2069F1E1E0F0E0EC0FF0
:101AC000FD1FEF0DF11D80818E1124C0F3946F2D49
:101AD000CE01019600D764EF71E080E090E040D342
:101AE000A7E0FA12CCCF8091D63E8B7F9CCF50E1FD
:101AF000E51671F080E2E81641F098E0E912D8CFDF
:101B0000EE24E394DD24D394D5CF22E0E22EFACF65
:101B1000E12CF8CFCA946DA57EA58FA5BBD860E057
:101B2000CE010196D8D6F12CC110A9CF40D693CEC4
:101B300044D66AE0FE0131966F01CF0139D793E0B8
:101B4000F92E4090CD9F5090CE9F6090CF9FEC2C6F
:101B500056014601D4018D914D01ACD540E059D6D6
:101B600075D360E971E080E090E0FAD241E0862D23
:101B7000B2014FD668EC70E080E090E0F1D2882DA1
:101B80008C198F1538F3C9D6982E911009C0C5D677
:101B9000982EEFE4F3EC3197F1F700C00000F5CF99
:101BA000D4D6BBD6882339F08FE493EC0197F1F7B4
:101BB00000C00000F6CFD5018D915D01813031F17B
:101BC00050F0823009F002CF41E0941651F050E21B
:101BD0009512FCCE06C0B2E09B1619F0E0E19E1211
:101BE000F5CE41E0862DB20114D664EF71E080E0BD
:101BF00090E0B6D28A2D8E198F1528F2F3948AE0E0
:101C0000F812A6CF8091D63E8D7F0DCFF4E09F16BF
:101C100041F328E09212DACEE4CFCFD591E09F8B4A
:101C2000A8ECAE8BFF24F394EE24E3941D8E1C8E5F
:101C30004090CD9F5090CE9F6090CF9FA6D68F7042
:101C40008D8B8930D8F7DD24D394DE24CC24C39443
:101C5000CF24E7E0EA8FA12CB12C482F50E04F8F22
:101C600058A3912C812C8B8E772473947C24F110B3
:101C700001C0712CEE2009F445C081E08D258E8FC6
:101C800040E0862DB201C5D59E8D992359F020E004
:101C90004EE160E08F8D98A11DD220E040E06EE122
:101CA000C40118D2772051F020E04EE160E08D8928
:101CB0001DD520E040E06EE18B8D18D5C7D2712C88
:101CC000DD2011F0C11055C028D6EE20E9F0D1106A
:101CD0000AC0982F977009F4FAC0BB24B394AB8D57
:101CE000BD89AB13B12CFF2019F1C11044C0DF2C0A
:101CF0000FC0E11003C0FF2009F460C0BF89BF5FBF
:101D0000BF8B9CCF1E8EBCCFFF2081F0C11009C0BD
:101D1000887309F457C0AA24A394EB8DFD89EF13AF
:101D2000A12CD110CDC0CC24C39406C0DD2021F05D
:101D3000C110C9C0DD24D39487EA91E60197F1F779
:101D400000C0000095E0790EAE897A1608F4B8CF8D
:101D5000DD2011F0C1100DC0BFEF8B1A9B0AE9E026
:101D60008E16910409F07FCFFA8DF150FA8FF111A0
:101D700078CFEE2049F0EB2CB11026C022E04FA125
:101D800058A569A580E051D7FF2049F0FA2CA11091
:101D90001EC022E0432D588D698D81E046D7FAD8C8
:101DA0005D8D8C8D58130AC0E11002C0FF2031F008
:101DB0009E8994519E8B983209F09BCF6D8D8C8DAE
:101DC000F0D6B4CEC12CB8CF2F892C8FDDCF4F8960
:101DD0004D8FE5CFF2D467E0CE010B96E9D547E011
:101DE000BE016F5F7F4FCE010B96F7D5BE01655FD9
:101DF0007F4F80E08CD647E0BE01655F7F4F80E07B
:101E000006D8E82E6CE271E080E090E0A9D1FF24D2
:101E1000F394FE0CBE016F5F7F4F81E078D64F2DAB
:101E2000483008F047E0BE016F5F7F4F81E0EFD799
:101E3000682F8E2DC5CF4F2DBE01655F7F4F80E08F
:101E40003AD8D82E882321F121E0682DA30180E023
:101E5000ECD6CF2CEE2081F04F2DBE016F5F7F4F6F
:101E600081E029D8E82E8823D1F021E049A15AA1A8
:101E70006BA181E0DAD6BF2CCB106FCDD11003C09F
:101E8000EE2009F46ACDF394AAE0FA1262CD65CD92
:101E900022E04CA15DA16EA180E0C7D6DBCF22E09D
:101EA0004AA55BA56CA581E0C0D6E6CFB1EA4B168A
:101EB000BBEB5B06BDE06B06710408F4EDCA23CDF5
:101EC000E11059CF63CFE11056CFF12C68CFF1105C
:101ED0001DCFDF2C31CFE1EEFEE382E390E084837F
:101EE0009583178289E09EE38087918716861786FF
:101EF000108A118A81E085878287138682E0848731
:101F000086E390E08283938382E190E080839183F3
:101F100084E0868384E294E0828B938B88E0848BD8
:101F20000895AA1BBB1B51E107C0AA1FBB1FA61720
:101F3000B70710F0A61BB70B881F991F5A95A9F772
:101F400080959095BC01CD01089597FB072E16F45E
:101F5000009406D077FD08D0E4DF07FC05D03EF4FE
:101F6000909581959F4F0895709561957F4F089545
:101F70000FD0A59F900DB49F900DA49F800D911D33
:101F800011240895EE0FFF1F0590F491E02D0994A0
:101F9000A29FB001B39FC001A39F01D0B29F700D5B
:0C1FA000811D1124911D0895F894FFCFBD
:101FAC00141516173130010204080000102000002F
:101FBC000000000102030706001E001E00001E0C9C
:101FCC0000000000040506070302010001020300E3
:101FDC000000000001010101000000001020408001
:081FEC000804020102040801CF
:061FF40028001EE1AC0014
:00000001FF
